:100000000C9461000C947E000C947E000C947E0095
:100010000C947E000C947E000C947E000C947E0068
:100020000C947E000C947E000C947E000C947E0058
:100030000C947E000C947E000C947E000C947E0048
:100040000C944C010C947E000C947E000C947E0069
:100050000C947E000C947E000C947E000C947E0028
:100060000C947E000C947E00000000002400270009
:100070002A0000000000250028002B0000000000DE
:1000800023002600290004040404040404040202DA
:100090000202020203030303030301020408102007
:1000A0004080010204081020010204081020000012
:1000B0000008000201000003040700000000000027
:1000C000000011241FBECFEFD8E0DEBFCDBF11E08E
:1000D000A0E0B1E0EAE3FAE002C005900D92AE398B
:1000E000B107D9F721E0AEE9B1E001C01D92A23B12
:1000F000B207E1F70E9496010C941B050C940000D6
:10010000833081F028F4813099F08230A9F008958D
:100110008730A9F08830C9F08430B1F48091800034
:100120008F7D03C0809180008F7780938000089539
:1001300084B58F7784BD089584B58F7DFBCF809182
:10014000B0008F778093B00008958091B0008F7DCC
:10015000F9CFCF93DF93282F30E0F901E255FF4F1D
:100160008491F901E656FF4FD491F901EA57FF4F08
:10017000C491CC23A1F081110E948000EC2FF0E00B
:10018000EE0FFF1FE458FF4FA591B491EC91ED23C2
:1001900081E090E009F480E0DF91CF91089580E064
:1001A00090E0FACF1F93CF93DF93282F30E0F9012F
:1001B000E255FF4F8491F901E656FF4FD491F901C2
:1001C000EA57FF4FC491CC23A9F0162F81110E944A
:1001D0008000EC2FF0E0EE0FFF1FEE58FF4FA591CF
:1001E000B4918FB7F894EC91111108C0D095DE232B
:1001F000DC938FBFDF91CF911F910895DE2BF8CF55
:10020000CF93DF9390E0FC01E656FF4F24918A578D
:100210009F4FFC0184918823D1F090E0880F991FB3
:10022000FC01E859FF4FA591B491FC01EE58FF4F36
:10023000C591D49161110EC09FB7F8948C91E22FB3
:10024000E0958E238C932881E223E8839FBFDF9182
:10025000CF9108958FB7F894EC91E22BEC938FBF78
:10026000F6CF8E3008F08E502091200190E4299F27
:10027000900111248770822B80937C0080917A00FA
:10028000806480937A0080917A0086FDFCCF809113
:1002900078009091790008951F920F920FB60F92F7
:1002A00011242F933F938F939F93AF93BF9380918C
:1002B000AE019091AF01A091B001B091B101309128
:1002C000AD0123E0230F2D3758F50196A11DB11D77
:1002D0002093AD018093AE019093AF01A093B00144
:1002E000B093B1018091A9019091AA01A091AB01B5
:1002F000B091AC010196A11DB11D8093A90190930D
:10030000AA01A093AB01B093AC01BF91AF919F91B3
:100310008F913F912F910F900FBE0F901F901895C6
:1003200026E8230F0296A11DB11DD2CFCF93DF93F4
:10033000CDB7DEB7C254D1090FB6F894DEBF0FBEF9
:10034000CDBF789484B5826084BD84B5816084BD5E
:1003500085B5826085BD85B5816085BD80916E0063
:10036000816080936E001092810080918100826094
:1003700080938100809181008160809381008091D1
:1003800080008160809380008091B10084608093C0
:10039000B1008091B00081608093B00080917A00BC
:1003A000846080937A0080917A00826080937A00E2
:1003B00080917A00816080937A0080917A008068D1
:1003C00080937A001092C10081E08093200160E068
:1003D00089E00E94000105E811E05DE8E52E51E0AA
:1003E000F52E6DE8662E61E0762E20E031E0239652
:1003F0003FAF2EAF239778E1872E71E0972EE5E788
:10040000AE2EE1E0BE2EF5E9CF2EF1E0DF2EAAE917
:100410002A2EA3E03A2E412C512CF80180810E5F48
:100420001F4F61E00E940001F7018081F2E0EF0EB2
:10043000F11C61E00E940001F6018081F2E0CF0E24
:10044000D11C61E00E940001F5018081F2E0AF0E55
:10045000B11C0E94310190939F0180939E0129E07D
:1004600030E0DC010E94000567362CEF72072FEFA9
:10047000820792070CF4BFC1643034E27307810530
:1004800091050CF0BBC1A20191010E949104F901F8
:10049000EE0FFF1FEF59FE4F80819181F401819390
:1004A00091934F01F6E6F29FC001F39F900D112446
:1004B000C3962396EEADFFAD239781939193239638
:1004C000FFAFEEAF23976016710609F0A6CF36E9AD
:1004D000432E512C612C712C88E00E94A9000197B9
:1004E00009F08FC18091A801811107C01092A70166
:1004F0001092A60181E08093A80189E00E94A900E2
:100500009093A5018093A4012091A2013091A301B1
:100510008130910509F07BC12115310509F077C1C2
:1005200021E02093A1012091A6013091A701203262
:10053000FDE03F070CF068C12F5F3F4F3093A701EC
:100540002093A6019093A3018093A2018091A10121
:10055000882309F47CC028E1A22E21E0B22EF12CE0
:10056000E12CF501C190D1905F010091A60110919D
:10057000A701C601800F911F0197B6010E94EC04EC
:10058000892B09F05CC061E0F701EB56FE4F8081DA
:100590000E94D200F701E357FE4F9080F701EB571E
:1005A000FE4F4081F701E05FFE4F2081318180E303
:1005B000E1E2F1E0DE01119601900D928A95E1F7FA
:1005C00080E1E1E5F1E0DE01D19601900D928A959E
:1005D000E1F7C8010197B6010E94EC04CB0164E089
:1005E00070E00E94EC04F9013197EE0FFF1FEE0F4F
:1005F000FF1FE80FF91FEE0FFF1F21E030E02C0F67
:100600003D1FE20FF31F0081118101501109000FFE
:10061000111FF8013196EE0FFF1FE20FF31F60A9C3
:10062000842F0E94D200000F111FE1E0F0E0EC0FD8
:10063000FD1FE00FF11F60A9892D0E94D20032E05A
:10064000E30EF11C48E0E416F10409F08ACF809132
:10065000A001882309F4C7C09DE7892E91E0992E57
:1006600028E0E22E21E0F22E80E091E023969FAF79
:100670008EAF239735E7232E31E0332E45E9C42E84
:1006800041E0D42E10E000E05EE1B52E66E6A62E35
:10069000F6018081F2E0CF0ED11C60E00E94D20012
:1006A000F4018081F2E08F0E911C0E9431019C01C7
:1006B000215F3F4FF70180819181A901481B590BB0
:1006C00057FF03C05195419551094531510564F1DA
:1006D000C90181589109843B910508F0A6C0032EF9
:1006E000000C440B550B2158310941095109A5E073
:1006F000B0E00E94B004A30192010E9491042F5F18
:100700003F4F4F4F5F4FF801E05FFE4F3183208333
:1007100021503109B29EC001B39E900D1124805723
:100720009F4FF70191838083F1018081F2E02F0ECA
:10073000311C0E94310190939F0180939E0123966A
:10074000EEADFFAD2397219131912396FFAFEEAF30
:100750002397AC01421B530B9A0157FF03C03195FD
:100760002195310927333105ACF129E030E0DC0176
:100770000E94000530E020E067365CEF75075FEF10
:100780008507950774F029E030E06430E4E27E07E5
:100790008105910534F42AE933E040E050E00E94FD
:1007A0009104F901EE0FFF1FEF59FE4F80819181F7
:1007B000F801E85EFE4F918380832396EEADFFAD96
:1007C00023973297A29EC001A39E900D1124C39639
:1007D00091838083F2E0EF0EF11C0E5F1F4F083013
:1007E000110509F055CF20E030E0232B09F474CE39
:1007F0000E94000071CE30E020E049CE29E030E0D8
:1008000046CE1092A80179CE21E030E097CE009735
:1008100039F42130310521F421E02093A00192CE5A
:100820001092A1011092A0018DCEC9018553914073
:10083000843B910518F5032E000C440B550B2553F2
:10084000314041095109A5E0B0E00E94B004A30184
:1008500092010E9491042F5F3F4F4F4F5F4FF8016D
:10086000E05FFE4F3183208321503109B29EC001E9
:10087000B39E900D11248C5B9E4F53CFC901895EAE
:100880009140843B910518F5032E000C440B550B49
:10089000295E314041095109A5E0B0E00E94B00451
:1008A000A30192010E9491042F5F3F4F4F4F5F4F72
:1008B000F801E05FFE4F3183208321503109B29E61
:1008C000C001B39E900D112488509E4F2ACFC901BC
:1008D0008D599240843B910508F026CF032E000CE1
:1008E000440B550B2D59324041095109A5E0B0E0A8
:1008F0000E94B004A30192010E9491042F5F3F4F18
:100900004F4F5F4FF801E05FFE4F3183208321504E
:100910003109B29EC001B39E900D112484559D4FA4
:1009200000CF052E97FB1EF400940E94A80457FDEB
:1009300007D00E94BB0407FC03D04EF40C94A8041B
:1009400050954095309521953F4F4F4F5F4F0895FB
:1009500090958095709561957F4F8F4F9F4F08952B
:100960000E94DD04A59F900DB49F900DA49F800D63
:10097000911D11240895A1E21A2EAA1BBB1BFD0193
:100980000DC0AA1FBB1FEE1FFF1FA217B307E4076E
:10099000F50720F0A21BB30BE40BF50B661F771FC6
:1009A000881F991F1A9469F76095709580959095A6
:1009B0009B01AC01BD01CF010895A29FB001B39F7F
:1009C000C001A39F700D811D1124911DB29F700D58
:1009D000811D1124911D089597FB072E16F4009494
:1009E00007D077FD09D00E94070507FC05D03EF42B
:1009F000909581959F4F0895709561957F4F0895CB
:100A00000E94DD04B7FF0895821B930B0895AA1B73
:100A1000BB1B51E107C0AA1FBB1FA617B70710F0E9
:100A2000A61BB70B881F991F5A95A9F7809590951B
:0A0A3000BC01CD010895F894FFCF3A
:100A3A00D007D007D007D007D007D007D007D007F4
:100A4A000100010001000100010001000100010094
:100A5A000101000200030004000100020004000377
:100A6A000002000400010003000300040002000168
:100A7A000004000200030001000400030002000158
:100A8A000000000000000001000100000001000158
:100A9A0000200010000C00080007000500040003F5
:100AAA0000020001000E000F0014001100120013D2
:100ABA000010001500040006000A000C00050007DB
:0E0ACA00000B000D0003000200010000000000
:00000001FF
